:020000040800F2
:10000000000001208D850008C1880008C58800080F
:10001000C9880008CD880008D18800082189000817
:100020002189000821890008218900082189000808
:10003000218900082189000821890008618D0008B4
:1000400021890008218900082189000821890008E8
:1000500021890008218900082189000821890008D8
:1000600021890008218900082189000821890008C8
:1000700021890008218900082189000821890008B8
:100080002189000821890008958900082189000834
:100090002189000821890008218900082189000898
:1000A000A98F0008CD8F0008F18F00082990000863
:1000B0007D900008ED9000085D91000821890008FE
:1000C0002189000821890008218900082189000868
:1000D0002189000855940008A9940008FD9400089F
:1000E00021890008218900082189000885920008DB
:1000F000A9920008CD92000805930008E589000840
:100100002189000821890008CD9100082189000873
:1001100051950008A59500083D92000861920008DD
:100120002189000821890008218900082189000807
:1001300010B5054C237833B9044B13B10448AFF321
:1001400000800123237010BDF0100020000000008B
:100150007C7E010808B5064B1BB106480649AFF383
:1001600000800648036813B1054B03B1984708BDEA
:10017000000000007C7E0108F4100020F010002038
:10018000000000007047704738B520B9134895212A
:10019000134A144B05E0022905D81048104A124BA7
:1001A000962109F0B7FA4FF0000300228C1EA242FC
:1001B0000BD2845CC3F3072565400C4CDBB234F8EA
:1001C0001540013284EA0323F0E7DB43014401F8E0
:1001D000013CC3F30723035538BD00BF64920108F7
:1001E00028920108A9920108B49201080493010819
:1001F00038B520B91748AA21174A184B05E002293B
:1002000005D81448144A164BAB2109F083FA4FF075
:10021000000300228C1EA2420BD2845CC3F307258C
:100220006540104CDBB234F81540013284EA0323F8
:10023000F0E70144DB4311F8011CDAB2914206D128
:10024000025DC3F307239B1A5842584138BD002072
:1002500038BD00BF64920108C0920108A99201084C
:10026000B49201080493010870B161B1074A105CAF
:10027000535CFF22034493FBF2F2C2EB02229B1A6F
:10028000034AD05C70470846704700BFB09D010824
:100290001A97010808B50368C9B21B68984708BDDA
:1002A00008B51720002109F0D3FC1620002109F021
:1002B000F3FC1620012109F0CBFC1720012109F0E5
:1002C000C7FC1620002109F0C3FCBDE80840172038
:1002D000002109F0BDBC08B51620002109F0B8FCCA
:1002E0001620002109F0D8FC1720012109F0B0FCEC
:1002F0001620012109F0ACFCBDE8084017200021C0
:1003000009F0A6BC38B500210546162009F0C4FC4A
:10031000072445FA04F1162001F0010109F098FCC8
:100320001720012109F094FC1720002109F090FC0E
:1003300014F1FF34EDD21620042109F0ADFC172092
:10034000012109F085FCBDE838401720002109F0A3
:100350007FBC38B50D460446FFF7A2FF5020FFF7DB
:10036000D1FF2046FFF7CEFF2846FFF7CBFFBDE8C1
:100370003840FFF7B0BF0000031E10B539DD012B78
:100380004FF000000CD11B4B18601B4B18701B4B1F
:100390001A68013A1A601A68824210DA18600EE090
:1003A000022B14D1134B1860134B1870134B1A689F
:1003B00001321A601A68142AC4BF14221A601B681A
:1003C0000F4AD45C0F4B1B7873B1002005E0032B60
:1003D00005D10A4B0A4A1B68D45C214602E0042B73
:1003E00002D10146FFF7B5FF074B00221A60074B09
:1003F0001C6010BD140000207B1300200C11002095
:1004000004950108FC110020EC11002024000020BC
:10041000054B1A6801321A60196840F2B6329142EF
:10042000C4BF00221A6070471C11002008B50420C8
:10043000FFF7A2FF014B00221A7008BD3400002014
:1004400010B5234C61212046FFF724FF20460021F0
:10045000FFF720FF20460D21FFF71CFF204600215B
:10046000FFF718FF20460A21FFF714FF204601215D
:10047000FFF710FF20463021FFF70CFF2046072131
:10048000FFF708FF20466321FFF704FF20464021C5
:10049000FFF700FF20460021FFF7FCFE2046002169
:1004A000FFF7F8FE20460021FFF7F4FE204600216A
:1004B000FFF7F0FE20460021FFF7ECFE204600216A
:1004C000FFF7E8FE20464821FFF7E4FE10BD00BF1D
:1004D000FC19002010B5234C61212046FFF7DAFEFD
:1004E00020460021FFF7D6FE20460D21FFF7D2FE61
:1004F00020460021FFF7CEFE20460A21FFF7CAFE64
:1005000020460421FFF7C6FE20463121FFF7C2FE38
:1005100020460721FFF7BEFE20465421FFF7BAFE12
:1005200020462421FFF7B6FE20460021FFF7B2FE49
:1005300020460021FFF7AEFE20460021FFF7AAFE6D
:1005400020460021FFF7A6FE20460021FFF7A2FE6D
:1005500020466F21FFF79EFE20464821FFF79AFEB6
:1005600010BD00BFFC19002010B5234C61212046AE
:10057000FFF790FE20460021FFF78CFE20460D215C
:10058000FFF788FE20460021FFF784FE20460A215F
:10059000FFF780FE20460421FFF77CFE2046312134
:1005A000FFF778FE20460721FFF774FE204654210E
:1005B000FFF770FE20460021FFF76CFE2046002169
:1005C000FFF768FE20460021FFF764FE2046002169
:1005D000FFF760FE20460021FFF75CFE2046002169
:1005E000FFF758FE20467021FFF754FE20463121C8
:1005F000FFF750FE10BD00BFFC190020054B0A227A
:100600001A60054B1B68092BD4BF03200420FFF799
:10061000B3BE00BF1C0000208813002030B50022AC
:100620004FF6FF73104C0821A05CC0B283EA0005AE
:1006300015F0010F4FEA63031ABF83F4044383F0FC
:1006400008039BB201394FEA5000EFD10132272A4B
:10065000E8D1DA436FEA1323D2B2DBB284F8272061
:1006600084F8283030BD00BF8D1300204B4B2DE99E
:10067000F74F002440221A701F465C709C70A1B294
:10068000474805F0F1FFE61C0134C0B2242C434D6D
:10069000B855F4D1434C204609F0CCFC2368EA7EDF
:1006A00020461A7009F0C6FC23682A7F20465A703B
:1006B00009F0C0FC23686A7F20469A7009F0BAFCF2
:1006C0002368AA7F2046DA7009F0B4FCEA7F236829
:1006D00020461A7109F0AEFC95F8202023682046C8
:1006E0005A7109F0A7FC95F82120236820469A71D9
:1006F00009F0A0FC236895F82220DA712A4B1B78B8
:10070000AA2B47D0204609F095FC2268502313708D
:100710002046019309F08EFC22684FF0490B82F8C5
:1007200001B0204609F086FC22684FF0520A82F898
:1007300002A0204609F07EFC22684FF0410982F8B1
:100740000390204609F076FC22684FF0540882F8A6
:100750000480204609F06EFC226845275771204628
:1007600009F068FC226820269671204609F062FC98
:100770002268D671019BEB7685F81CB085F81DA028
:1007800085F81E9085F81F8085F8207085F8216017
:1007900085F8226003B0BDE8F08F00BF8D13002004
:1007A000B81900201018002020000020C64B7F221E
:1007B0002DE9F04F5D211A707D225A709970D52174
:1007C000D9701A71FD225A71C0490022DA7783F874
:1007D000202083F8212083F822200A7889B0120192
:1007E000D2B29A71BA4A9C791078C00000F0080021
:1007F00020439871987940F00200987108780001C0
:10080000C0B218731C7B1078C00000F008002043B1
:100810001873187B40F00600187308780001C0B206
:1008200098749C7C1078C00000F0080020439874F5
:10083000987C40F00600987408780001C0B21876E1
:100840001C7E1078C00000F0080020431876187E47
:1008500040F00400187609780901C9B29977997FA8
:100860001278D20002F008020A439A779A7F012197
:10087000D2B29A7706224A43985C013140089854D4
:100880009D5C944805F07F0530F815009C18050A1A
:100890000629C0B29D546071ECD18F4A137892F84A
:1008A000018092F802C04344D778634416793B44F0
:1008B0005579334494792B44D0792344117A0344F5
:1008C0000B441F21B3FBF1F1C1EB41115B1ADBB209
:1008D000537201200023D45C8049E40901F83340BD
:1008E000D45CC4F380140C54D55C441CC5F340158F
:1008F0000D55D55C841CC5F300150D55D55CC41C85
:10090000C5F3C0050D55D55C041DC5F380050D5517
:10091000D55C441DC5F340050D55D55C0133841DE0
:1009200005F001050A2B0D5500F10800D3D1002276
:10093000885C6B4BC0B2985401320B2AF8D18C5CA6
:10094000501D0132E4B2162A1C54F8D18C5C02F11D
:100950000A000132E4B2202A1C54F7D15F4890F813
:100960004B405F48E4B280F82A408C5C02F11000F2
:100970000132E4B22A2A1C54F7D1584890F84C406E
:100980005748E4B280F83A408C5C02F1160001321C
:10099000E4B2342A1C54F7D1504890F84D405048E6
:1009A000E4B280F84A408C5C02F11C000132E4B2EF
:1009B0003E2A1C54F7D1494890F84E404848E4B2CA
:1009C00080F85A408C5C02F122000132E4B2482ADD
:1009D0001C54F7D1414B93F84F20414BD2B283F8CE
:1009E0006A2000223E4B911C501C13F8028013F821
:1009F00000A013F801900690D01C13F800C0551DFC
:100A00008AEA09095F5DD61D88EA090902F1080B27
:100A100005968CEA09099E5D079587EA090713F890
:100A20000B507E4002F10B0475401D55069DCDF81C
:100A300010B013F805A002F10C0413F801B00194F2
:100A400013F80090141D13F80480961D049D8BEA82
:100A50000A0A13F806C089EA0A0A5F5D039688EA63
:100A60000A0A02F1090602968CEA0A0A9E5DDDF87E
:100A700004B087EA0A0A86EA0A0A03F80BA013F808
:100A800001A013F800B0079813F80490059E13F81E
:100A900000808BEA0A0A029813F806C089EA0A0A5B
:100AA0001F5C88EA0A0A02F10A001E5C8CEA0A0A44
:100AB00087EA0A0A02F10D0586EA0A0A03F805A088
:100AC000069E13F802C00DE0AC11002019000020B2
:100AD000A8120020A09C010844190020151800202D
:100AE0007C18002013F8069013F80180DDF80CB094
:100AF00013F804A089EA0808059C13F80B708CEA27
:100B000008081E5D8AEA08081C5C87EA08077E4020
:100B100002F10E0574405C55079D9F5C13F801C0FF
:100B200013F80580029913F80B90DDF810B002F16C
:100B30000F0413F80B605D5C8CEA0801794089EAC8
:100B40000101185C7140694010324140702A19550A
:100B50007FF448AF002202F170010020585402F1E6
:100B6000100013F8028002F12004185C13F804C08E
:100B700002F130041F5D404402F140041E5D6044F8
:100B800002F150041D5D384402F160041C5D3044E4
:100B900028442044013200F00100102A5854DAD1D0
:100BA000012101F18044013CA4000120062505FB40
:100BB0000105304A002656551E5D1EB1565D86F071
:100BC0008006565504F110055D5D35B1062505FB1F
:100BD0000105565D4036F6B2565504F120055D5DBF
:100BE00035B1062505FB0105565D2036F6B2565592
:100BF00004F130055D5D35B1062505FB0105565D47
:100C00001036F6B2565504F140055D5D35B1062546
:100C100005FB0105565D0836F6B2565504F1500540
:100C20005D5D35B1062505FB0105565D0436F6B25E
:100C3000565504F160055D5D35B1062505FB0105DE
:100C4000565D0236F6B2565504F170055D5D35B15C
:100C5000062505FB0105565D0136F6B256550130F5
:100C6000052804F10104A1D10131052999D109B068
:100C7000BDE8F08FAC1100202DE9F04F012187B0C5
:100C80000023CE48CE4AC45CE40902F83340C45C79
:100C9000C4F380145454C55C4C1CC5F34015155561
:100CA000C55C8C1CC5F300151555C55CCC1CC5F383
:100CB000C0051555C55C0C1DC5F380051555C55CF3
:100CC0004C1DC5F340051555C05C01338C1D00F06B
:100CD00001000C2B105501F10801D2D1B94B0021B4
:100CE000D970997059701970545C081D0131E4B2C3
:100CF00008291C54F8D1545C01F108000131E4B218
:100D000013291C54F7D1545C01F10C000131E4B2F9
:100D10001E291C54F7D1545C01F110000131E4B2DA
:100D200029291C54F7D1545C01F114000131E4B2BB
:100D300034291C54F7D1545C01F118000131E4B29C
:100D40003F291C54F7D1545C01F11C000131E4B27D
:100D50004A291C54F7D1545C01F120000131E4B25E
:100D600055291C54F7D1545C01F124000131E4B23F
:100D700060291C54F7D10122924B511C13F80290A8
:100D8000029113F801B0911C13F801A0D41C13F8C0
:100D90000480551D8BEA0A0A13F805C0D61D89EA9E
:100DA0000A0A9F5D039588EA0A0A02F1080501967E
:100DB0008CEA0A0C5E5D87EA0C0702F10B007E40AC
:100DC000DDF808C01E5413F80C9013F801A0101D94
:100DD00013F80480961D13F800C002F10C078AEA8C
:100DE0000909059788EA09099F5D8CEA090913F842
:100DF00005B002F10905049687EA09095E5D8BEAF0
:100E00000909059F86EA0906DE5513F8018013F8E3
:100E10000490039C13F800C013F804A0019C89EA15
:100E200008081F5D8CEA080813F805B002F10A04EF
:100E30008AEA08081D5D87EA08078BEA070B02F1BA
:100E40000D0685EA0B059D55029E13F802C013F8A6
:100E5000068013F8019013F800A00199049802F19C
:100E60000E051F5C5E5C88EA09018CEA01018AEAD2
:100E70000101185D794071400F324140882A59556F
:100E80007FF47AAF01224F4B02F10F0402F12D07DC
:100E900013F8029013F804A0DE5D02F14B0113F881
:100EA000018002F15A058AEA060613F805C089EAAC
:100EB000060688EA060602F187008CEA06061E543A
:100EC00002F11E0013F8028013F804A013F800903A
:100ED00002F13C0C02F19606CDF804C08AEA090939
:100EE00013F80CC088EA090913F805B0029602F15C
:100EF00069069D5D8CEA090C8BEA0C0BDDF808C0D5
:100F000085EA0B0503F80C5013F8029013F804B0AF
:100F100013F800A013F807808BEA0A0A13F801C03F
:100F200089EA0A099F5D02F1780488EA09081E5DD2
:100F30008CEA080C87EA0C0702F1A5057E405E5595
:100F40009F5C13F80080019802F1B40513F800C00B
:100F50005E5C88EA0C01185D7940714001324140C5
:100F6000102A59558FD10022B5205043C421B0FB1F
:100F7000F1F401FB14009C5C13490132E4B2C42A71
:100F80000C54F1D10724002210480023835411F897
:100F9000325003461DB1855C85F080058554A51F40
:100FA0004D5D1DB1855C4035EDB28554651F4D5DCD
:100FB00075B1855C2035EDB2855409E044190020F7
:100FC000151800207C180020A91200208F1900207D
:100FD000251F4D5D1DB1855C1035EDB28554E51EB4
:100FE0004D5D1DB1855C0835EDB28554A51E4D5D86
:100FF0001DB1855C0435EDB28554651E4D5D1DB196
:10100000855C0235EDB285540D5D1DB1855C013501
:10101000EDB2855401320C2A04F10804B4D1187BD6
:10102000334A00F03F001873187D00F0FC0018757B
:1010300091F8600018B1107B80F08000107391F877
:1010400061201AB11A7B4032D2B21A7391F8622031
:101050001AB11A7D0232D2B21A7591F863201AB110
:101060001A7D0132D2B21A756420152200259D54D2
:101070000D5C1F4C1DB1A55C85F08005A554441C7A
:101080000C5D1CB19C5C4034E4B29C54841C0C5D2F
:101090001CB19C5C2034E4B29C54C41C0C5D1CB19B
:1010A0009C5C1034E4B29C54041D0C5D1CB19C5C2F
:1010B0000834E4B29C54441D0C5D1CB19C5C0434A7
:1010C000E4B29C54841D0C5D1CB19C5C0234E4B2FF
:1010D0009C54C41D0C5D1CB19C5C0134E4B29C5456
:1010E0000132212A00F10800C0D107B0BDE8F08F1D
:1010F0008F1900202DE9F041264C0026E672A672D9
:101100006672A75D637A0E205F403946FFF7ACF840
:1011100094F80A8039465FFA88F880EA08005FFA96
:1011200080F8382084F80980FFF79EF894F80B8047
:1011300039465FFA88F880EA08005FFA80F84020B4
:1011400084F80A80FFF790F80136092E114DE072FD
:10115000D7D1114B1A78012A0BD16A7A82F0960204
:101160006A72AA7A82F09602AA72EA7A82F09602EB
:10117000EA721B78022B0BD1637A83F099036372B6
:10118000A37A83F09903A372E37A83F09903E3725D
:10119000BDE8F08144190020210000203C4B0D22C5
:1011A00010B55A735D229A737F22DA7377221A740C
:1011B000FD225A7475229A747022DA743549364ABF
:1011C0001278097801F00F0141EA0211334AC9B2DD
:1011D00011701078324931F81010C8B2090A5070F5
:1011E0009170197B107801F0C00141EA90011973E8
:1011F000597B1478507801F00F01800841EA84117E
:1012000000F030000143C9B25973D97C507801F025
:10121000F001C0F383000143D974197D54789078AC
:1012200001F00301800800F03C0041EA8411014311
:10123000C9B219751B4B19781B4B01F0FF0009B996
:10124000187001E0032119701B78DBB213700023C2
:1012500053709370154B1968C1F30741D170196829
:10126000C1F3072111711B68DBB25371104B196870
:10127000C1F3074191711968C1F30721D1711B684E
:10128000DBB21372FFF736FFBDE81040FFF7F4BC86
:101290008F1900202100002019000020441900208F
:1012A0001A9501086D1300208C13002030000020D7
:1012B0000C00002010B52A4B00221A60294A117830
:1012C00021B119681078303901441960517839B169
:1012D0002449186849780A24303904FB010119604F
:1012E000917839B11F49186889786424303904FB32
:1012F00001011960D17841B11A491868C9784FF4D1
:101300007A74303904FB01011960117941B1154932
:101310001868097942F21074303904FB0101196030
:10132000517939B10F49186849790F4C303904FBAC
:1013300001011960917939B10A49186889790B4C12
:10134000303904FB01011960D2793AB1054A1968B4
:10135000D2790748303A00FB02121A6010BD00BF74
:101360004012002044190020A086010040420F00D6
:10137000809698002DE9F04700232E4E0022F2546B
:101380000133082BF9D12424651C2B48A9B205F0A0
:101390006BF908B9254603E02C2DFBD02C46F3E76A
:1013A000A1B2254805F060F92F1B013CC0B2232CE7
:1013B000F055F5D1FFF77EFF2049214A0B6888469A
:1013C0001360914600230022F2540133082BFAD116
:1013D0001C4B1B78934214BF34272C277D1C1648C6
:1013E000A9B26C1E05F040F908B9254606E0FA1DC1
:1013F000954205F10103F8DC1D46F0E7BC42C4EB61
:10140000050A08DBA1B20C4805F02EF9C0B206F8B7
:101410000A00013CF2E7FFF74DFFD8F800200A4B25
:101420001A600A4B1B78AA2B1CBF0023C9F8003096
:10143000BDE8F08744190020B819002040120020B0
:101440000C0000206D130020300000202000002040
:1014500010B5074CFF212046FEF71CFF2046FF2158
:10146000FEF718FF2046FF21FEF714FF10BD00BF56
:10147000E419002008B504482221FEF70BFFBDE85F
:101480000840FFF7E5BF00BFE419002038B5574C0E
:101490002368012B28D15649564D574808F0B9FA10
:1014A000FFF7D6FF5549544808F0B3FA29680A22D5
:1014B00001EB8101504808F013FBFFF7C9FF5049C9
:1014C0004D4808F0A6FA22214B48FEF7E3FE0A2217
:1014D0002968494808F004FB4A49474808F099FA46
:1014E000FFF7C8FF002323602368022B16D146496B
:1014F000414808F08EFAFFF7ABFF41493E4808F03B
:1015000088FA22213C48FEF7C5FE40493A4808F0D7
:1015100080FAFFF7AFFF354B00221A602368032BD8
:1015200016D13949344808F074FAFFF791FF34496D
:10153000314808F06EFA22212F48FEF7ABFE3449FD
:101540002D4808F066FAFFF795FF284B00221A6035
:10155000304C2368002B48DD2F4B1A681D46642A47
:1015600043DD2E4B1B68012B3FD12368012B10D18B
:101570002B4B1B781BB120482A4908F04AFAFFF789
:1015800067FF294A00231370284A1370284B012251
:101590001A702368032B10D1214B1B781BB11648FE
:1015A000244908F036FAFFF753FF1F4B01221A7047
:1015B0001E4A002313701E4A13702368022B10D199
:1015C000174B1B781BB10C481B4908F022FAFFF798
:1015D0003FFF154A00231370144A01211170144A69
:1015E0001370002323602B6038BD38BDB019002074
:1015F0001A9801080C110020E4190020269801080F
:1016000031980108659A01083C9801087EF00108AC
:10161000489801083C120020DC110020181100201D
:10162000C51300204D980108441200201412002018
:10163000F41100205B9801086998010800B58DB08D
:10164000684605F095F8164904AB6846252206F071
:1016500075FF1449AA230B70134B013304A8134AD6
:10166000184402441278187890421CBF55220A7020
:101670000F4A9342F1D1013304A80C4A18440244A2
:101680001278187890421CBF55220A70094A93427A
:10169000F1D1684605F032F80DB05DF804FB00BFEB
:1016A00015120020200000202F0D0208D0F2FDF7B7
:1016B0003F0D02084F0D020808B50448044908F020
:1016C000A8F9BDE80840FFF7C3BE00BFE419002039
:1016D0007798010810B50F4C0F49204608F099F98A
:1016E00020462221FEF7D6FD0C49204608F091F94C
:1016F000FFF7C0FE20460A4908F08BF92046222158
:10170000FEF7C8FD2046074908F083F9BDE8104000
:10171000FFF7B0BEE41900207D9801088C980108FD
:1017200091980108659A01085C2838B5044601D1F2
:10173000FFF7D0FFA34BA4481B785C2B0CBFA34939
:10174000A34908F066F9FFF783FE5B2C00F3D6800F
:10175000A0499D4808F05DF99B482221FEF79AFDBB
:1017600014B999489C4912E0012C02D196489B4932
:101770000DE0022C02D19448994908E05B2C02D17B
:101780009148984903E05A2C03D18F48964908F0B4
:1017900040F9FFF76FFE012C6BD194498A4808F09D
:1017A00038F9FFF755FE9249874808F032F9FFF7FC
:1017B0004FFE9049844808F02CF922218248FEF718
:1017C00069FD8D49804808F024F9FFF753FE8B49E5
:1017D0007D4808F01EF922217B48FEF75BFD884911
:1017E000794808F016F9FFF745FE8649764808F073
:1017F00010F922217448FEF74DFD8349724808F024
:1018000008F9824DFFF736FE81496F4808F001F96B
:101810006D482221FEF73EFD2B7813B12B786BB972
:1018200018E02C24A1B27B4804F01EFF01340146CD
:101830006548FEF72FFD342CF4D1EFE73424A1B234
:10184000744804F011FF013401465F48FEF722FDA1
:101850003C2CF4D1FFF70EFE2B7813B15A486E4999
:1018600001E059486D4908F0D4F8BDE83840FFF769
:10187000EFBD002C42D16A49534808F0CAF8FFF77F
:10188000E7FD6849504808F0C4F8FFF7E1FD594901
:101890004D4808F0BEF822214B48FEF7FBFC624998
:1018A000494808F0B6F8FFF7E5FD5449464808F006
:1018B000B0F822214448FEF7EDFC5C49424808F0AC
:1018C000A8F8FFF7D7FD52493F4808F0A2F83E4874
:1018D0002221FEF7DFFC1024A5B24E48294604F071
:1018E000C3FE38B129464B4804F0BEFE01463648D7
:1018F000FEF7D0FC0134182CEED15EE0022C32D180
:101900003C49314808F085F822212F48FEF7C2FCF7
:1019100047492D4808F07DF8FFF7ACFD3C492A48BF
:1019200008F077F822212848FEF7B4FC4049264801
:1019300008F06FF8FFF79EFD3049234808F069F87A
:1019400022212148FEF7A6FC3A491F4808F061F819
:10195000FFF790FD32491C4808F05BF8FFF778FD6F
:10196000194830497FE7632C2BD11A49164808F0F3
:1019700050F822211448FEF78DFC2D49124808F03A
:1019800048F8FFF777FD1B490F4808F042F822217D
:101990000D48FEF77FFC28490B4808F03AF8FFF79E
:1019A00069FD1B49084808F034F822210648FEF773
:1019B00071FC05481E4908F02CF8BDE83840FFF7D7
:1019C00059BD38BD18000020E4190020A098010876
:1019D000B5980108CA980108DC980108E398010845
:1019E000E7980108EE980108F6980108FB980108AD
:1019F0000999010815990108249901082E990108EF
:101A00003E99010843990108529901086D1300207D
:101A10005F990108B81900206E9901087C990108A6
:101A20008A99010898990108A4990108AE990108BA
:101A3000659A01087EF00108B199010838B5244C77
:101A400005462378984241D0C3B22370237803F02F
:101A5000FF0163B91F4B10201B7803B9012108F067
:101A6000F7F80820002108F0F3F8FEF7FFFD2178D1
:101A7000C9B201290CD1184B10201B7803B10021E9
:101A800008F0E6F80820012108F0E2F8FFF772FC00
:101A90002378022B0CD1114B10201B780BB10021A5
:101AA00000E0012108F0D4F80820012108F0D0F866
:101AB0002378622B05D8064B09481A78542104F084
:101AC000DDFD2846BDE83840FFF72EBE38BD00BF1B
:101AD000280000208E190020C31300207518002054
:101AE000B819002010B5364B1A781AB9354A127851
:101AF0005C2A07D01A78012A34D1324A12785C2A3B
:101B000030D11AE0304C2378022B10D02378032BED
:101B10000DD02378062B0AD02378072B07D0237803
:101B2000042B08D0284B1B78052B47D103E001205C
:101B3000FFF784FFF3E702203CE0234C2378042BDB
:101B400018D02378052B15D02378062B12D02378B4
:101B5000072B0FD02378012B10D01B4B1B78032BA6
:101B60002CD10BE01B78022B28D1164B1B785C2B59
:101B700024D105E00220FFF761FFEBE7002019E028
:101B8000114C2378012B10D02378032B0DD0237810
:101B9000052B0AD02378072B07D02378022B08D0F7
:101BA000094B1B78062B09D103E00020FFF746FF05
:101BB000F3E70120BDE81040FFF740BF10BD00BFB4
:101BC0002800002018000020C213002010B5204972
:101BD000204807F01EFF204C22211E48FEF75AFB2A
:101BE0001C481E4907F015FF237A092B03D8194812
:101BF0001B4907F00EFF1748217A102207F087FFD4
:101C0000637A092B03D81348154907F002FF1148DE
:101C1000617A102207F07BFFA37A092B03D80D48C5
:101C20000F4907F0F6FE0B48A17A102207F06FFF6C
:101C3000E37A092B03D80748094907F0EAFEE17A5D
:101C40000448102207F063FFBDE81040FFF712BC04
:101C5000B9990108E41900206F130020C699010802
:101C60009699010810B511490446114807F0D1FEB4
:101C700014B90F480F4912E0012C02D10C480E494B
:101C80000DE0022C02D10A480C4908E0032C02D1D5
:101C900007480B4903E0042C03D10548094907F024
:101CA000B8FEBDE81040FFF7D3BB00BFD0990108D4
:101CB000E4190020D6990108DA990108DE99010893
:101CC000E2990108E899010838B54549454807F007
:101CD000A0FE44482221FEF7DDFA1824A1B24248B2
:101CE00004F0C2FC013401463E48FEF7D3FA202C32
:101CF000F4D1FFF7BFFB3D493A4807F08AFE394867
:101D00002221FEF7C7FA0824A1B2374804F0ACFC40
:101D1000013401463348FEF7BDFA102CF4D1FFF729
:101D2000A9FB33492F4807F074FE2E482221FEF705
:101D3000B1FA0024A1B22C4804F096FC013401460B
:101D40002848FEF7A7FA082CF4D1FFF793FB29499E
:101D5000244807F05EFE23482221FEF79BFA102458
:101D6000A1B2214804F080FC013401461D48FEF771
:101D700091FA182CF4D1FFF77DFB1F49194807F0A1
:101D800048FE18482221FEF785FA2024A1B2164801
:101D900004F06AFC013401461248FEF77BFA242C59
:101DA000F4D1FFF767FB15490E4807F032FE0D48E6
:101DB0002221FEF76FFAA5B20B48294604F054FC25
:101DC00038B12946084804F04FFC01460548FEF7A3
:101DD00061FA01342C2CEED1BDE83840FFF74ABB44
:101DE000EC990108E4190020B8190020FC990108B9
:101DF0000C9A01081C9A01082C9A01083C9A0108C7
:101E000070B5054600242146284607F0DDFE0A4B42
:101E10000278214604F1130628469A5507F0D4FEAD
:101E200004F11001027889B20448013404F026FC60
:101E3000082CE8D170BD00BF8D130020B819002018
:101E400013B5064C01AA2046054908F085FA20463C
:101E50000449054A08F004F802B010BD101800202B
:101E60004A9A0108ED9E000808000020014601483A
:101E700007F0A7BCCC19002010B50446E020FFF7FE
:101E8000F5FF0420FFF7F2FF7020FFF7EFFF204679
:101E9000BDE81040FFF7EABFF8B53C4C2378062BAD
:101EA00069D83B4F0626BB7B22783A4D013A7243F4
:101EB000A85C03F0F00343EA1010FFF7D7FF237884
:101EC000013B7343EB5C22781B01013A06FB025293
:101ED0005078DBB243EA1010FFF7C8FF2378013BCC
:101EE00006FB03535B7822781B01013A06FB025282
:101EF0009078DBB243EA1010FFF7B8FF2378013B7C
:101F000006FB03539B7822781B01013A06FB025221
:101F1000D078DBB243EA1010FFF7A8FF2378013B2B
:101F200006FB0353DB7822781B01013A06FB0252C1
:101F30001079DBB243EA1010FFF798FF2378013BDA
:101F400006FB03531B7922781B01013A06FB025260
:101F50005079DBB243EA1010FFF788FFB87B237893
:101F600000F00F00013B06FB03556B7940EA0310BC
:101F7000C0B2FFF77BFF23780133DBB223702378F5
:101F8000072B02D1014B01221A70F8BD1A00002064
:101F900045120020AC110020F8B5594B594F1C7860
:101FA000594B1B78002B594B18BF01241A68013A72
:101FB0001A603B78002B3BD1BCB961215448FEF735
:101FC00069F921465248FEF765F90E215048FEF79F
:101FD00061F901214E48FEF75DF901214C48FEF7F9
:101FE00059F94B484821FEF755F90926494D2CB9B6
:101FF0002B68494A4648D15C07F0E3FB2B68013364
:102000002B602A6840F2B6339A4202DD414B00222F
:102010001A60013EEAD15CB902213D48FEF73AF967
:1020200021463B48FEF736F939482146FEF732F99A
:102030003D78EDB2012D03D03B78022B5FD12FE02C
:10204000BCB961213248FEF725F921463048FEF738
:1020500021F90B212E48FEF71DF929462C48FEF7E1
:1020600019F929462A48FEF715F929484821FEF7AB
:1020700011F90926274D2CB92B68274A2448D15C31
:1020800007F09FFB2B6801332B602A6840F2B633C0
:102090009A4202DD1F4B00221A60013EEAD1CBE7D3
:1020A000BCB961211A48FEF7F5F821461848FEF739
:1020B000F1F809211648FEF7EDF801211448FEF762
:1020C000E9F801211248FEF7E5F811483121FEF741
:1020D000E1F807260F4D2CB92B680F4A0C48D15C4C
:1020E00007F06FFB2B6801332B602A6840F2B63390
:1020F0009A4202DD074B00221A60013EEAD1F8BD88
:10210000A1120020280000207B130020A412002030
:10211000FC190020D4110020CD130020F0B5B94DDA
:10212000B9B02B782BBBE020FFF7A0FE0F20FFF704
:102130009DFE1120FFF79AFE0124B34B23445879EA
:102140000134FFF793FE0A2CF7D1B04B1B783BB953
:102150005520FFF78BFE2D20FFF788FE162006E0A6
:102160005020FFF783FE6F20FFF780FEB320FFF7BC
:102170007DFE2B78012B54D02D78EDB2022D40F04E
:102180003E81E0238DF86430A14E7C238DF86530CC
:1021900020238DF86630337801A88DF86730D4237A
:1021A0008DF8683071238DF86930C9238DF86A3055
:1021B00063238DF86B304D238DF86C30954C03F014
:1021C000CDF801A8012103F005FA294601A803F082
:1021D0000CFA217801A803F015FA8F4B01A81978A1
:1021E00003F01DFA01A8002103F025FA01A800213F
:1021F00003F02EFA294601A803F034FA01A80021C1
:1022000003F03CFA01A8002103F042FA03AD01A853
:10221000002103F047FA01A8294603F027F900231B
:102220003FE0E020FFF722FE7C4C2520FFF71EFE5A
:102230001A20FFF71BFE2378012B02D12020FFF785
:1022400015FE2378022B02D10120FFF70FFE237821
:10225000032B02D10220FFF709FE2378042B02D1C1
:102260000320FFF703FE2378052B02D10420FFF79C
:10227000FDFD2378062B02D10520FFF7F7FD012491
:10228000674E305D0134FFF7F1FD0E2CF8D1FFF7FA
:1022900003FE0F24305D0134FFF7E8FD1C2CF9D15B
:1022A0006AE719AFFA18E95C0133192B5172F8D1BA
:1022B00000235B4A0133D15C5A2B07EB030282F8FF
:1022C0002110F6D111A803F0F9F911A803F044FF89
:1022D000544902A807F0E8FF11A802A903F09CFEE8
:1022E000514902A807F026FF11A802A903F0B4FE85
:1022F00011A802A903F026FE11A802A903F057FEB7
:102300004A4902A807F016FF11A802A903F0C4FE6B
:10231000474902A807F00EFF02A911A803F0DCFE4E
:1023200002A807F087FE029B05221A7002A807F098
:1023300081FE029B22225A7002A807F07BFE029BBC
:1023400061229A7002A807F075FE029B5F22DA7084
:1023500002A807F06FFE029B24221A7102A807F060
:1023600069FE029B03225A7102A807F063FE029BDA
:102370000E229A7102A807F05DFE029B0025DD7116
:1023800002A807F057FE029B02A81D7207F052FE3A
:10239000029B11A85D7202A903F0BEFE227811A86B
:1023A0000AA903F0BFF90DF186030AAA2A441168AD
:1023B00005351279192D19601A7103F11203F4D140
:1023C0000025795D1B48013507F0FBF97C2DF8D11C
:1023D00033780233DBB2337023780133DBB22370FE
:1023E0002378062B02D90B4B00221A7002A807F0A3
:1023F0007DFD11A803F071F901A802F0BDFF39B00D
:10240000F0BD00BF2800002050190020A2120020BB
:1024100004120020A41100200E1200201A00002037
:102420004512002010180020519A01085C9A0108FA
:10243000679A0108CC1900202DE9F04F814F87B031
:102440003B78814C002B40F063812378162B02D11E
:102450007E4B01221A602378172B02D17B4B02227C
:102460001A6023780F2B01D1FFF73CFB23780A2B4E
:1024700040F0DC80764A03231360764B1978994646
:1024800099BB7549754807F0C4FA22217348FDF7D6
:1024900001FF7349714807F0BCFAFEF7EBFF132305
:1024A000704E2022F25401331B2BF9D15523B37601
:1024B000FEF7B4F8E020FFF7D9FC2C20FFF7D6FC9C
:1024C0001020FFF7D3FC0025705D0135FFF7CEFC2F
:1024D000292DF9D1FEF7CAF8E020FFF7C7FC032049
:1024E000FFF7C4FC1320FFF7C1FC99F80030012B63
:1024F00040F099805C4B1D68002D40F09480564957
:10250000564807F086FA22215448FDF7C3FE544985
:10251000524807F07EFAFEF7ADFF2B46534D0DF102
:102520000C0AEA5C0AF803200133082BF6D10022DA
:102530000021A9540132082A4C4BF9D134221A70D7
:1025400030225A709A70DA70494B1A789946002AEC
:1025500000F0868199F80030002B40F08F81DFF881
:1025600024B1444E01238BF800303370FEF716FE81
:10257000FEF71CF9E020FFF779FC2520FFF776FC39
:102580001A20FFF773FC4120FFF770FC4FF00008A2
:102590005A46DFF8F4B01BF8080008F10108019270
:1025A000FFF764FCB8F1210F019AF2D101231370F7
:1025B0004FF02908FFF7B2FDB8F10108FAD1022265
:1025C0003270FEF7EBFDE020FFF750FC2520FFF70F
:1025D0004DFC1A20FFF74AFC4220FFF747FC464615
:1025E0001BF806000136FFF741FC212EF8D100232D
:1025F0001AF80320EA540133082BF9D199F8003076
:10260000002B00F0498199F8003063B13426A6F11F
:102610003403B1B2EA5C1848013604F02FF8FEF733
:10262000A9FE3C2EF3D10A4A012313602178C9B2D6
:1026300001292ED1114B124A187838B30021197094
:10264000022325E0C1130020CC130020EC11002050
:102650003C120020280000207D980108E419002089
:10266000729A01088D1300208813002006120020A2
:102670006D13002021000020B81900207B130020DA
:10268000B01900201A0000208F19002019700323B0
:1026900013602378042B27D1A04D2B78012B09D16F
:1026A0009F4B1A7882F001021A702878FFF73CF8E5
:1026B000FEF760FE2B78BBB99A499B4807F0A9F951
:1026C00022219948FDF7E6FD9849974807F0A1F9BE
:1026D000FEF7D0FE954903A807F064FA03A8FFF7B8
:1026E0008FFB03A807F01CFA2378032B08D18B4B30
:1026F0001A78012A00F0DE801B78002B00F0DA80C7
:102700002378022B04D1854B1B78002B00F0DD8051
:102710003B780A2B40F09F802378062B08D1844910
:10272000814807F076F9FEF793FE824B00221A707B
:102730007A4E3378012B02D03378002B34D12378B2
:10274000132B23780CBF312500250E2B237808BFCF
:102750003225092B237808BF3325122B237808BF95
:1027600034250D2B237808BF3525082B237808BF87
:102770003625112B237808BF37250C2B237808BF6B
:102780003825072B237808BF39250B2B00F0B6809E
:10279000002D40F0B4802378102B03D162486649A5
:1027A00007F037F9FEF754FE337803F0FF02002BF1
:1027B00051D12378042B29D1604B614D41211970EF
:1027C0002B7860490133DBB22B702B785648022BF3
:1027D00088BF2A7007F01DF953482221FDF75AFDE2
:1027E0002B781BB95048584907F013F92B78012B67
:1027F00003D14D48554907F00CF92B78022B03D132
:102800004948534907F005F9FEF734FE2378032BB6
:1028100021D15049444807F0FCF8484DFEF718FE16
:102820004D49414807F0F5F822213F48FDF732FDB8
:1028300029783D48C9B24B1CDBB22B7006F0C1FFB2
:102840003948464907F0E5F82B785A2B84BF4123D5
:102850002B70FEF70FFE0023237007B0BDE8F08F4A
:102860002C26A6F12C03B1B2EA5C3D48013603F0F8
:1028700005FFFEF77FFD342EF3D16BE63426A6F17B
:102880003403B1B2EA5C3648013603F0F7FEFEF7D6
:1028900071FD3C2EF3D162E62C26A6F12C03B1B2D9
:1028A000EA5C2F48013603F0E9FEFEF763FD342EA3
:1028B000F3D1A8E62B491C4807F0ABF8FEF7C8FD9A
:1028C0000A233B70002323701AE71649164807F0C5
:1028D000A0F822211448FDF7DDFC2349124807F037
:1028E00098F8214903A807F05DF903A8FFF788FAD3
:1028F00003A807F015F9FEF7BDFD09E730251B49D0
:10290000094807F086F822210748FDF7C3FC29464D
:10291000054806F056FFFEF7ADFD3CE72800002015
:102920006D1300205F990108E41900207D9A0108C9
:10293000869A0108C1130020AC9A010835000020D6
:10294000B4190020B79A0108CB9A0108CF9A010860
:10295000D39A0108D79A0108089B01084F9A0108E9
:10296000B81900202F9B01083D9B0108919A01088E
:1029700038B5114C1149204607F04BF8104D204650
:102980002221FDF787FC20460E4907F042F86978BE
:10299000204606F016FF20460B4907F03AF8A978C2
:1029A000204606F00EFF2046E97806F00AFFBDE853
:1029B0003840FEF75FBD00BFE4190020469B0108C8
:1029C00015120020539B0108619B010808B50D48B2
:1029D00006F006FF002806DD0A4806F0ADFE0146B7
:1029E0000948FDF757FC084806F0FAFE002806DD06
:1029F000054806F0A1FE01460248FDF74BFC06F033
:102A0000CFF8E4E7CC190020E41900202DE9F041CB
:102A10002E4C94B02078E0286DD16378032B6AD1D6
:102A2000A578002D67D1FFF721FA1120FFF71EFAD4
:102A30002846FFF71BFA0120FFF718FA4420FFF79A
:102A400015FA5620FFF712FA4D20FFF70FFA45202E
:102A5000FFF70CFA4720FFF709FA4120FFF706FAC3
:102A60002020FFF703FA1A4D4820FFF7FFF9442012
:102A7000FFF7FCF96978174806F0A3FE16491548D8
:102A800006F0C7FFA978134806F09BFE1148E978C5
:102A900006F097FE114A01231360114A1360114B8F
:102AA0001A78632A04BF5C221A700F4B1B78FBB1A3
:102AB0000E485B2103F0D8FD012819D10B485B219A
:102AC000002203F0DBFD032013E000BF20110020F3
:102AD00015120020CC190020619B0108181100205C
:102AE0003C1200202800002010000020B81900200F
:102AF0000220FFF7B7F822788E4BE02A35D15A78BA
:102B0000252A32D19B781A2B2FD18B4B1B7863B39C
:102B10008A4B1A78012A07D00122894989481A70FC
:102B200006F077FFFEF794FC874B1B78012B02D051
:102B30000120FEF783FF854B1B78002B00F0F88205
:102B4000A27C7C4B5D2A40F0F882DA7C7F2A40F040
:102B500002831A7D772A40F0FE825A7DFD2A40F0DA
:102B6000FA829B7D752B40F0F6822278714BE02A29
:102B70004FD15A780F2A4CD19B78112B49D16E4BEB
:102B80001B78002B45D06D4B1A783AB100226C4966
:102B90006C481A7006F03DFFFEF75AFC6A4B1B7832
:102BA00013B10020FEF74AFF684B1B78002B00F0A2
:102BB0000B83674E3368632B0EDC0125654B62196E
:102BC00091781B68644A0135D154FDF721FC0A2D28
:102BD000F4D1336801333360604B1A780132D2B2DA
:102BE0001A701A78142A84BF00221A705C4B1B7862
:102BF000482B0ED9E020FFF739F90520FFF736F909
:102C00007F20FFF733F91120FFF730F90520FFF798
:102C10002DF92278474BE02A30D15A787C2A2DD1E1
:102C20009B78202B2AD1444B1B783BB3434B1A781B
:102C3000022A07D00222424942481A7006F0E9FEF1
:102C4000FEF706FC404B1B78022B02D00220FEF759
:102C5000F5FE3E4B1B78002B00F0BE8201A802F06F
:102C60007DFB404901A802F08FFB01A802F0AEFCF9
:102C7000012800F0B58201A802F07EFB22782D4BDE
:102C8000E02A7DD15A78032A7AD19B78012B77D11B
:102C9000354B1A780132D2B21A701A78192A84BFC9
:102CA00019221A701B78142B02D9304B01221A708A
:102CB00005F076FFE020FFF7D9F80A20FFF7D6F8F5
:102CC000214D0120FFF7D2F80320FFF7CFF8287835
:102CD0000130C0B2FFF7CAF8254B1878FFF7C6F8E5
:102CE0002B782BB91A4B23481968C1F1460101E032
:102CF00020480021FDF7CEFA1E480021FDF7CAFA50
:102D00002B78012B09D1124B1A4819681B68462BE6
:102D1000D4BFC1F14601002101E016480021FDF7B2
:102D2000B9FA2B78022B27D1094B12481968C1F147
:102D3000460123E020110020100000201800002090
:102D4000B5980108E419002028000020FC1100209B
:102D5000A41200201C110020CD130020041200201A
:102D60008013002024110020C4130020D011002063
:102D7000F5110020CC19002099480021FDF78AFAAE
:102D80002278984BE02A4BD19878022848D11B79B9
:102D9000954D03F007032B70FFF76EF82B78012B8E
:102DA00002D10020FEF74AFE2B78022B02D101202F
:102DB000FEF744FE2B78042B02D10220FEF73EFEE4
:102DC0002A78894B022A09D01A78032A06D01A7861
:102DD000062A03D01B78072B40F0288283488449B9
:102DE00006F017FEFEF734FB2A787F4B042A03D047
:102DF0001A78052A40F01D827C487E4906F009FEBB
:102E0000FEF726FB2A78784B012A03D01A78032A8A
:102E100040F01A827548784906F0FBFDFEF718FB72
:102E20002278704BE02A2ED19A78032A2BD1DB78B6
:102E3000724D1BB95C202870FEF776FCE378012BFD
:102E400003D100202870FEF7F9FDE378022B03D1AF
:102E500001202870FEF7F2FDE378032B03D1022056
:102E60002870FEF7EBFD664B002203201A60FFF787
:102E700003F82B785D485C2B0CBF6249624906F071
:102E8000C8FDFEF7E5FA2278564BE02A19D15A78A8
:102E90000C2A16D19A78042A13D1DB78FF2B01D1A2
:102EA000FFF794FDFE2B0CD1584B1A684AB901224A
:102EB00002201A60FEF7D6FE554B63201870FEF70D
:102EC00033FC2278474BE02A09D15A780C2A06D1E4
:102ED0009878042803D1DB780BB9FEF7CDFF227870
:102EE000404BE02A0AD15A780C2A07D19878042856
:102EF00004D1DB78012B01D1FEF7BEFF2278394BDC
:102F0000E02A05D02278374BE02A40F0088129E0FA
:102F10009A78902AF6D1DB78302BF3D1052501275A
:102F20006378304E013B9D42ECDA7FB1A95D2F48BA
:102F30002C2908D1374906F06CFD2C482221FDF7D9
:102F4000A9F900270CE006F03CFC09E02748715D78
:102F500006F037FC7378023B9D4201D1FEF78AFAF6
:102F60000135DDE79A78912A40F0D980DB785A1E46
:102F7000022A00F2BC80012B54D127491B4806F0DD
:102F800048FD1A482221FDF785F90426002515B9C8
:102F9000A35D202B0AD01548A15D06F012FC0B2E74
:102FA00003D112481D4906F034FD01250136102ECB
:102FB000EDD1FEF75FFA1A490C4806F02AFD0B48DE
:102FC0002221FDF767F9182E03D00848A15D06F00D
:102FD000F8FB0136212EF6D1FEF74CFA23E000BFB4
:102FE000CC19002020110020C2130020E419002079
:102FF000729B0108929B0108B29B010818000020F7
:10300000DC110020A0980108B598010818110020D3
:1030100028000020069A010881980108639B010896
:10302000959801080025E378022B2AD19549964806
:1030300006F0EFFC94482221FDF72CF90526002D1F
:1030400040F00D81A35D202B40F009810136192E3F
:10305000F5D1FEF70FFA8D498B4806F0DAFC8A4865
:103060002221FDF717F91A260025002D40F0FD80DA
:10307000A35D202B40F0F98001362E2EF5D1FEF70E
:10308000F9F9E378032B32D17E497F4806F0C1FC81
:103090007D482221FDF7FEF8042615B9A35D202BFB
:1030A0000AD07948A15D06F08CFB0B2E03D176483F
:1030B000774906F0AEFC01250136182EEDD1FEF75A
:1030C000D9F97249704806F0A4FC6F482221FDF737
:1030D000E1F819250023002B40F0CD80625D202A05
:1030E00040F0C9800135232DF5D1FEF7C3F9E3780F
:1030F000FA2B14D16749644806F08BFC6248222100
:10310000FDF7C8F8042563789D4206DA624B5E48F5
:10311000595D06F056FB0135F5E7FEF7ABF95F4A5E
:10312000002323706370A370136014B0BDE8F081B6
:103130005B4B1B78002B44D002E5FF2A0BD1DA7CD5
:10314000572A08D11A7DD72A05D15A7D5D2A02D186
:103150009B7DF52B07E5534D2B68592B3FF705ADAC
:103160000426514FA25D3B68DFF8448108F8032034
:10317000FDF74EF90C2E02D12B6801332B6001367E
:10318000112EEED1E17D627C3B6801F00F0122F04F
:103190000F020A4308F80320FDF73AF918263B68A6
:1031A000A25D08F80320FDF733F91B2E02D12B682E
:1031B00001332B600136252EF1D12B6801332B60B2
:1031C000D3E4FDF733F9BBE4354B1B78002B7FF4D8
:1031D000F0ACFDF72BF9ECE4314B1B782BB13DE55E
:1031E000304F3B68592B03DD45E5FDF71FF935E509
:1031F00002A802F063FA0AAE02A802F0ADFF02A82C
:103200002A49324602F014FD0025274B715D1B68E8
:10321000274A0135D154FDF7FBF8232DF5D13B6842
:1032200002A805333B6002F058FA24E5164821490C
:10323000D6E51A78062A3FF4DFAD1B78072B3FF45A
:10324000DBAD11481C49D9E51A78052A3FF4E2ADF7
:103250001B78072B3FF4DEAD0B481849DCE50A4824
:10326000A15D06F0AEFA0125F0E60748A15D06F083
:10327000A8FA012500E70448615D06F0A2FA0123DF
:1032800030E700BF81980108E419002095980108F3
:10329000639B0108659B010820110020781800201D
:1032A000A3110020A41200201C11002024110020D2
:1032B000CD130020829B0108A29B0108C29B01083C
:1032C00038B5144806F08CFA002822DD124C11485B
:1032D00025686B1C236006F02FFA104B2168002232
:1032E00058555A5421681B788229C8BF2260E02BA8
:1032F00007D000232360074806F072FA0028E5DCB7
:1033000038BD064B22685B789A42F4D1FFF77EFB0A
:10331000F1E738BDCC1900207818002020110020DA
:1033200038B5164806F05CFA0028154C0CDD256807
:1033300012486B1C236006F0FFF9124BC0B25855BF
:10334000226800219954ECE72368032B15DD2268DD
:103350000C4B013A9A5CFF2A0FD12268023A9A5C20
:10336000FF2A0AD12268033A9A5CFF2A05D1064A4D
:1033700001211170002222601A7038BDE41900206A
:10338000A811002084170020C513002010B5184C88
:10339000204606F009FA20466121FCF77BFF204613
:1033A0000021FCF777FF20460721FCF773FF20463A
:1033B0000021FCF76FFF20463421FCF76BFF20460D
:1033C0002021FCF767FF20460021FCF763FF204621
:1033D0000321FCF75FFF20462021FCF75BFF20461E
:1033E0000021FCF757FF20460721FCF753FF10BDD3
:1033F000FC190020F8B5914B1A780132D2B20F2A8D
:103400001A705DD9002506201D7006F0FDFB0446EC
:10341000072006F0F9FB40F604739C428849894A6C
:1034200001DD98424ADCA4F6C433B3F5507FA4F220
:103430004B7594BF01230023B5F58F6F38BF02335E
:10344000A4F2E62640F2634538BFDBB2AE429CBF31
:103450000333DBB2B4F5397FD8BF0433A0F6C434EC
:10346000D8BFDBB2B4F5507F98BF0533A0F24B74E0
:1034700098BFDBB2B4F58F6F38BF0A33A0F2E625F0
:1034800040F2634438BFDBB2A5429CBF0F33DBB2CE
:10349000B0F5397FD8BF14330978D8BFDBB2994271
:1034A00007D1116801310629116009D1664A1370EC
:1034B00006E063490B700023136001E00D70156096
:1034C000624B1A6801321A60196840F22622914252
:1034D00016DD00221A605E4B1A6812B95D4A01219E
:1034E00011601A680A2A02D15A4A022111601A6828
:1034F00001321A601B680C2B02DD554B0C221A603E
:10350000554B564E1A681D4601321A601A68544CC3
:10351000782AC4BF78232B6037680F2087B906F05C
:1035200081FB18B923680133236000E0276023681A
:103530000A2B14DD01233360494B00221A600EE090
:1035400006F070FB01280ABF2368002301332360C3
:1035500023680A2B03DD424A002333601360414B8A
:1035600041491B681B689A68404B02F003021A70BD
:1035700018780A7890423E4A09D111780131C9B2CF
:10358000117011781E2907D91E21117004E0002046
:1035900010701878C0B2087012780A2A1FD1354A04
:1035A000117819B91978012900F0F080117819B94A
:1035B0001978022900F0EE801178032904D11978D6
:1035C000C9B2022900F0EA801178032904D11978E0
:1035D000C9B2012900F0E5801B78DBB21370152019
:1035E00006F020FB244B00284AD11A6801321A60E9
:1035F000196840F24C429142C8BF1A6019681E4ACD
:1036000064290EDD116895290BDC962111601B4A97
:1036100010491078002840F0C78001201070032264
:103620000A601B68144AB3F57A7F2BDD116840F2FB
:103630001943994240F3BC8024E000BFF6110020FA
:103640000512002014110020CC13002000120020CD
:1036500014000020B0190020DC110020E01100202F
:1036600010120020C8EF0108101100208D19002051
:103670000F12002014180020F81100207B130020E6
:1036800000221A60544C2378282B39D8237803F071
:10369000FF012BB90E2006F0DBFA504B01221A7005
:1036A0002178C9B2012902D10E2006F0D1FA23787F
:1036B000142B01D1FFF76AFE2378282B20D1484E26
:1036C00033780BB9FCF7BCFE3378012B01D1FCF742
:1036D00001FF3378022B01D1FCF746FF414B012259
:1036E0001A703E4B00221A70FCF788FF3E4B1B6895
:1036F000092B3E4BD4BF022203221A6000232B6009
:1037000023780133DBB223702378292B02D9324B83
:1037100029221A70364B374D1A681C4601321A603E
:103720001A68142AC4BF002323602368E3B92B78E6
:10373000D3B1314B1B7803F0FF01002B48D114208B
:1037400006F086FA2D4B13201B7803F0FF0103B11E
:10375000012106F07DFA2A4B12201B7803F0FF01AD
:1037600003B1012106F074FA22682B789A4232D113
:103770001420002106F06CFA1320002106F068FAEC
:10378000BDE8F8401220002106F062BA1D4902206F
:1037900008600BE71B49012008600DE7194801602C
:1037A00012E71848016017E700201070022237E77F
:1037B00040F24C431360144B14481A68552192B2DE
:1037C00002F05CFF124B00221A700222114B58E7E4
:1037D00014200121B4E7F8BD34000020A31100201B
:1037E00028000020FC110020881300203C1200203B
:1037F000C8130020290000204412002014120020C9
:10380000F4110020EC1100200C110020B819002048
:103810007B130020B0190020F8B5224D2B78002B27
:103820003FD101232B70204B1A781C460AB1FFF7B9
:10383000E1FD23785BBB1D4A1378174603F0FF06B2
:103840002BBB152006F0EEF9194C18BB2368013389
:103850002360226840F24C439A4201DD144A13600F
:103860002368642B13D1134B002401263E701C6087
:10387000114B56211C60114B114802221C6002F0B2
:10388000FDFE0B4B132031461C6006F0E1F90023CE
:103890002B70F8BD0F2006F0C5F90028D6D02660A1
:1038A000F5E7F8BDD8110020100000206E130020AD
:1038B000F81100201C110020D4110020A4120020B7
:1038C000B819002038B5144B0025144C1D60144B5A
:1038D00004201D60FCF750FD204605F065FF6121C6
:1038E0002046FCF7D7FC29462046FCF7D3FC0121F3
:1038F0002046FCF7CFFC29462046FCF7CBFC2046AF
:103900002B21FCF7C7FC074B01221D70064B1A60E8
:10391000064B1D6038BD00BFA4120020FC1900201A
:1039200088130020FC1100203C120020DC11002034
:103930002DE9F0412B4DC8B02B68012B02D02B682C
:103940005BB115E0284B1A681E46002AF7D1274BB9
:103950001B78002B00F0D081F1E7234B1B680A2B6A
:1039600006D1224B1B7803F0FF04002B00F0EA8104
:103970002B68012B02D02C6854B10DE01A4B1A6849
:103980001E46002AF7D1194B1B78012BF3D1E7E132
:10399000154B1B680A2B04D02B68012B40F0EB80E1
:1039A0002CE0124B1B78012BF6D1FFF78BFF104B4D
:1039B00002221C600F4B1A70FDF7F0FBE020FEF7AF
:1039C00055FA2520FEF752FA1A20FEF74FFA422048
:1039D000FEF74CFA084B185D0134FEF747FA212C2C
:1039E000F8D1D9E7E011002088130020280000203A
:1039F000A4120020210000208F190020B04B1A686B
:103A00009846002A40F0B780AE4B1B78022B40F05E
:103A1000B280AD4B1B7823B9AC4B1B78002B00F068
:103A2000D181AB4B002403201C70FCF7A5FCA94BF3
:103A300006271C70A84BA94E1F700A233470C8F8C3
:103A40000030A74B01221A60A64B01A81C60E0239E
:103A50008DF8A4307C238DF8A53020238DF8A63076
:103A600033780DF10C088DF8A730D4238DF8A830E9
:103A700071238DF8A930C9238DF8AA3063238DF8FE
:103A8000AB304D238DF8AC3001F068FC01A8214625
:103A900001F0A0FD01A8022101F0A7FD01A8214627
:103AA00001F0B0FD394601A801F0B9FD01A8214699
:103AB00001F0C1FD01A8214601F0CAFD01A80221C3
:103AC00001F0D0FD01A8214601F0D8FD01A8214652
:103AD00001F0DEFD01A8214601F0E4FD01A8414608
:103AE00001F0C4FC374629AE331918F8042001341C
:103AF000192C5A72F7D10AA801F0E0FD0AA802F0C9
:103B00002BFB794902A806F0CFFB0AA802A902F014
:103B100083FA764902A806F00DFB0AA802A902F072
:103B20009BFA0AA802A902F00DFA12AC0AA802A98F
:103B300002F03DFA0AA8214601F07AFE0023F218AD
:103B4000E15C01335A2B82F82210F8D10024315D58
:103B50006748013405F035FE7C2CF8D13B7802A88B
:103B60000233DBB23B7006F0C1F90AA801F0B5FDE3
:103B700001A801F001FC2C68002C40F02681504B7C
:103B80001B680A2B40F021814E4B1D78EDB2022DAF
:103B900040F01B81FFF796FE564B01A81C60E02306
:103BA0008DF8A4307C238DF8A53020238DF8A63025
:103BB0004A4B03AE1B7843F001038DF8A730D423A2
:103BC0008DF8A83071238DF8A930C9238DF8AA305B
:103BD00063238DF8AB304D238DF8AC3001F0BEFB84
:103BE00001A8294601F0F6FC01A8294601F0FDFCD8
:103BF00001A8214601F006FD01A8062101F00FFDF4
:103C000001A8214601F017FD01A8214601F020FD81
:103C100001A8294601F026FD01A8214601F02EFD4C
:103C200001A8214601F034FD01A8214601F03AFD2A
:103C300001A8314601F01AFC29AD2B19325D01347F
:103C4000192C5A72F8D10AA801F038FD0AA802F01E
:103C500083FA254902A806F027FB0AA802A902F068
:103C6000DBF9224902A806F065FA0AA802A902F0C7
:103C7000F3F90AA802A902F065F912AC0AA802A990
:103C800002F095F90AA8214601F0D2FD0023EA18B6
:103C9000E15C01335A2B82F82210F8D10024295D0F
:103CA0001348013405F08DFD7C2CF8D102A806F0F4
:103CB0001DF90AA801F011FD01A801F05DFB84E0E7
:103CC0008813002028000020FC110020A3110020F0
:103CD0007B130020A41100200E12002004120020EB
:103CE0002C0000208413002010180020519A010895
:103CF000CC190020A4120020354B1B7813B9354B8A
:103D00001B78E3B1344B032000241C70FCF734FB18
:103D10000A233360314B1C70FCF780FCE020FEF777
:103D2000A5F82C20FEF7A2F81020FEF79FF82C4BE8
:103D3000185D0134FEF79AF8292CF8D1FFE5FCF75D
:103D400075FBDFE7FFF7BEFD264BE0201C60FEF7AA
:103D50008DF80320FEF78AF81320FEF787F807E6B0
:103D60001B4B1B7813B91B4B1B7843B31A4B032017
:103D700000241C70FCF700FB0A231B4A336001235C
:103D800013601A4A14601A4A13701A4A1370FDF726
:103D900005FAFCF70BFDE020FEF768F82520FEF79A
:103DA00065F81A20FEF762F84120FEF75FF8124B23
:103DB000185D0134FEF75AF8212CF8D1DBE5FCF749
:103DC00035FBD3E7FCF732FB2BE648B0BDE8F081CA
:103DD000FC110020A31100207B130020A212002060
:103DE0008D130020A41200202C000020841300203A
:103DF0001A000020210000208F190020334B10B53D
:103E00001B78002B61D0324B1B78002B5DD107242F
:103E100061213048FCF73EFA00212E48FCF73AFABF
:103E200011212C48FCF736FA01212A48FCF732FA16
:103E300001212848FCF72EFA48212648FCF72AFAE7
:103E40009E212448FCF726FA8D212248FCF722FA0D
:103E500032212048FCF71EFA88211E48FCF71AFA86
:103E600026211C48FCF716FA1A211A48FCF712FA08
:103E70003F211848FCF70EFA61211648FCF70AFAB0
:103E80008E211448FCF706FA02211248FCF702FAC8
:103E900040211048FCF7FEF900210E48FCF7FAF922
:103EA00008210C48FCF7F6F92A210A48FCF7F2F938
:103EB000FA210848FCF7EEF9142005F0DFFE013C7A
:103EC000A6D1BDE81040FFF7FDBC10BD36000020B4
:103ED0007B130020FC19002070B5544C6378002B34
:103EE0003ED1A378092B3BD1E378012B38D123793C
:103EF000012B35D16379312B32D14D4B4D4D1A68A1
:103F00001E4601321A602A6802B91A602A681AB974
:103F1000494B196801296FD02B6863B9464B1B6860
:103F20004BB9464B1B780BB1FFF7CCFC444A00233E
:103F30001360444A1360444B1B68002B434BCCBFB7
:103F4000002201221A702B681E2B59DC33681E2BAD
:103F500056DC2B68002B03DD374B1B68012B53D03D
:103F60006278324B002A5FD19A780B2A5CD1DA78DA
:103F7000012A59D11A79012A56D15B79482B53D19C
:103F80002B4B2C4C1A681D4601321A60226802B96C
:103F90001A6022681AB9284B196801293CD0236895
:103FA00063B9254B1B684BB9244B1B780BB1FFF74A
:103FB00089FC234A00231360224A1360224B1B68AA
:103FC000002B224BCCBF002201221A7023681E2B2B
:103FD00026DC2B681E2B23DC2368002B24DD164BEC
:103FE0001B68012B20D1BDE87040194A00211160E7
:103FF000184A1360FDF7D0BF1A60FFF7FFFE8BE78A
:104000000D4B01221A60A4E7114A00211160114AE8
:104010001360FDF7C1FFA3E71A60FFF7EFFEBEE7ED
:10402000054B01221A60D7E770BD00BF5019002070
:104030007C130020A412002088130020FC11002013
:104040001C110020D411002024000020A112002007
:10405000841300202C000020F0B570488DB005F0CE
:10406000BFFB00286E4C6F4D0EDD26686B48731C3D
:10407000236005F061FB23680022A855EA542368F9
:104080003C2BC4BF3C2323602A78664B612A02D0B4
:104090000023236005E022680C2A02DD9A78092AB1
:1040A00019D02A785F4B612A07D12268042A04DDDF
:1040B0009A7802F0FD02092A59D12A78594B612ACF
:1040C00040F0A98022680E2A40F3A5809A780B2A36
:1040D00040F0A18050E0544A116801311160002283
:1040E0004F491A70514B0A601A781E46022A03D1B2
:1040F0004F4B1B68012B37DD3378022BD1D14C4B52
:104100001B680A2BCDD104A801F0D8FA04A802F04C
:1041100023F86A4604A8474901F0B6FC464A1368EA
:104120001646013313600023444A1DF803E0176864
:104130003068013300EB80003844414F0D2B07F805
:1041400000E010683C4900F101001060ECD10B6800
:10415000052B05D10123136000230B60FDF7DEFF63
:1041600004A801F0BAFA9CE7FFF7B6FEC4E72C49B1
:1041700000220A601A70A0E72B4A2C4C116801310A
:104180001160274900220A601A7023781BB9284B56
:104190001B68012B39DD2378012B03D1244B1B68CD
:1041A000012B35DD237803F0FF0673B9204B1B6824
:1041B0000A2B0AD1FDF7B2FF224B1A780132D2B294
:1041C0001A701A78142A00D91E702378012B22D174
:1041D000174B1B680A2B1ED10623184AEC5C11688A
:1041E0000133481C106016480F2B4454F5D1124B74
:1041F000196801311960196803290CD10121116076
:1042000000221A60FDF78AFF05E0FFF765FEC2E7AE
:10421000FFF762FEC6E70DB0F0BD00BFFC1900203D
:104220004019002050190020F01100202800002023
:104230008813002056190020841300202C00002031
:1042400045120020A21200202DE9F041604C637855
:10425000022B40F0928003235E4F2022FA54013358
:10426000272BF9D15C4D02232B601B232968581C96
:104270004E1C2E60615C584AC9B2F9542B68E35C4D
:104280000BB10346F2E71368013313600B2329686F
:10429000581C4E1C2E60615C4F4AC9B2F9542B6801
:1042A000E35C0BB10346F2E71368013313600323A9
:1042B0002968581C4E1C2E60615C474AC9B2F954EB
:1042C0002B68E35C0BB10346F2E71368013313601C
:1042D00013232968581C4E1C2E60615C3E4AC9B2EB
:1042E000F9542B68E35C0BB10346F2E71368013322
:1042F000136023232968581C4E1C2E60615C364ACB
:10430000C9B2F9542B68E35C03F0FF060BB1034616
:10431000F0E7136801331360F31CB1B2FA5C2F4865
:10432000013602F0ABF9242EF6D100232C4F0022E7
:10433000FA540133082BF9D113462968581C01F1AE
:10434000010EC5F800E0615C234AC9B2F9542B683C
:10435000E35C0BB10346F0E7136801331360A6F189
:104360002403B1B2FA5C1D48013602F087F92C2E05
:10437000F5D1FCF7FFFFFCF779F96378032B40F0E8
:10438000A480134B9B78312B7DD1164B1A781F4696
:10439000012A48D10023144E0022F2540133082B85
:1043A000F9D13923114A3370137890461BB198F82C
:1043B0000030EBB927E02C25A5F12C03A9B2F25C63
:1043C0000648013502F05AF9342DF5D1EFE700BF68
:1043D000841700208D130020A8110020B819002098
:1043E000E411002028000020061200206D13002098
:1043F0003425A5F13403A9B2F25CA848013502F0D6
:104400003DF93C2DF5D1A649A64805F002FB222135
:10441000A448FBF73FFFA449A24805F0FAFAFDF7CC
:1044200029F8FCF7A7FF3A7802F0FF035ABB9F4D2B
:104430000022EA540133082BF9D1512343222A7078
:104440006B70AA70EB702A716B712023AB71102610
:10445000EB71A6F11003B1B2EA5C9048013602F0AC
:104460000DF9182EF5D18E498E4805F0D2FA222189
:104470008C48FBF70FFF8E498A4805F0CAFAFCF713
:10448000F9FFFCF7F3F8A378342B01D1FDF72AFBF1
:10449000A378352B01D1FDF717FCA378402B08D169
:1044A000844B00221A70844B1878FDF73DF9FCF715
:1044B00061FFA378412B08D17E4B01221A707E4BFD
:1044C0001878FDF731F9FCF755FF6378042B40F0BD
:1044D00097807A4B9B78302B04D1794B00221A704D
:1044E000FDF7EAF8A378312B04D1754B00221A703E
:1044F000FDF76CFBA378322B06D1714B00221A70AA
:104500006D4B1878FDF710F9A378352B04D16C4B5F
:1045100000221A70FEF72CFAA378502B18D16949A3
:10452000604805F076FA684B0A2219785D4801EB7D
:10453000810105F0D5FAFCF78BFF644B59481B78D5
:104540000BB9634900E0634905F063FAFCF780FFAB
:10455000A378512B20D1604B52481B780BB95F498F
:1045600000E05F4905F055FAFCF772FF5D4B4D48DE
:104570001B780BB95C4900E05C4905F04AFAFCF78E
:1045800067FF5B4B47481B780BB95A4900E05A4913
:1045900005F03FFAFCF75CFFA378522B2FD1574D63
:1045A0002B78022B09D02B78032B06D02B78062BE7
:1045B00003D02B78072B40F03A823A48504905F057
:1045C00028FAFCF745FF2A784C4B042A03D01A78C6
:1045D000052A40F02F8233484A4905F01AFAFCF7C1
:1045E00037FF2A78454B012A03D01A78032A40F076
:1045F0002C822C48444905F00CFAFCF729FFA378DB
:1046000062782E4B052A40F0A3819A78972A10D120
:10461000DB782E4D03F0FF0620485C2123B932469B
:1046200002F02CF82E7004E0012202F027F801239A
:104630002B70A378982B40F09280204B1E4DDB7896
:10464000254E03F0FF071548582143B93A4602F0BA
:1046500015F837702B7873B91020012109E0012279
:1046600002F00CF8012333702B7803F0FF0113B92B
:10467000102005F0EDFA23791A4E03F0FF070748E2
:104680005921002B42D13A4601F0F8FF37702978C2
:10469000C9B2012946D1102042E000BFB81900205C
:1046A0005F990108E41900204199010806120020D1
:1046B0007D9A01086D130020280000208417002037
:1046C000C1130020D29B01082900002036000020E1
:1046D000DB9B0108EC9B01088E190020FD9B010863
:1046E000139C0108C3130020299C01083F9C01086A
:1046F00075180020559C01086B9C0108C21300200E
:10470000729B0108929B0108B29B0108012201F0F3
:10471000B5FF012333702B78012B03D1102000212A
:1047200005F096FA63799E4E03F0FF079D485A21E3
:104730004BB93A4601F0A2FF37702B78022B0ED10D
:104740001020012109E0012201F098FF01233370BC
:104750002B78022B03D11020002105F079FAA378E1
:10476000502B09D1904B01221A70904BDA78052317
:10477000B2FBF3F28E4B1A70A378992B05D18C4BB8
:1047800088481A78572101F079FFA378302B36D169
:10479000884A032313600023874E0021F15401331C
:1047A000082BF9D10B461168581C4D1C1560615C33
:1047B000C9B2F1541368E35C0BB10346F3E77F4BD6
:1047C0001A781F4612B13B7863B916E02C25A5F183
:1047D0002C03A9B2F25C7348013501F04FFF342D70
:1047E000F5D1F0E73425A5F13403A9B2F25C6D48A8
:1047F000013501F043FF3C2DF5D1FCF7BBFDA3785B
:10480000312B22D16B4A0323136013236C4E2021DA
:10481000F15401331B2BF9D113231168581C4D1C83
:104820001560615CC9B2F1541368E35C0BB10346D7
:10483000F3E71025EB1CA9B2F25C5A48013501F0F0
:104840001DFF182DF6D1FBF711FFA278574B402A18
:104850007ED1DA78442A27D11A79532A24D15B7978
:10486000542B21D11025A5F10903A9B2E25C4D48D2
:10487000013501F003FF162DF5D14C4B29469A7BEB
:10488000484801F0FBFE474817214C2201F0F6FE94
:104890004C4B1B780BB9FBF7E9FE4B4B1B785C2BA1
:1048A00002D10020FDF7CAF8E278404B442A31D10A
:1048B0001A794D2A2ED15B79522B2BD100233E4EF3
:1048C0000021F1540133082BF9D13A4A0723136030
:1048D0000B461168581C4D1C1560615CC9B2F1543F
:1048E0001368E55CEDB22C2D01D00346F1E7A5F18C
:1048F0002C03A9B2F25C2B48013501F0BFFE342D28
:10490000F5D1FCF737FD304B1B785C2B02D1012031
:10491000FDF794F8E278254B592A16D11A79532AD3
:1049200013D15B79462B10D19AE0FF20FDF79EFA58
:10493000FF20FDF79BFAFF20FDF798FA224B1B782A
:104940005C2B02D10220FDF779F80220FDF78AF9ED
:1049500063780F2B1BD1FEF7B5FF1C4B00251D7094
:104960001B4B2A461D701B4B56211D701A4B0D48C0
:104970001D7001F083FE1420294605F069F913200B
:10498000294605F065F91220294605F061F963789A
:10499000084E902B22D000233360BDE8F08100BF89
:1049A00075180020B8190020C113002084170020BA
:1049B00029000020A8110020061200206D130020FD
:1049C0008D13002028000020180000204412002031
:1049D00014120020F411002010000020E020FDF748
:1049E00045FA30680130C0B2FDF740FA324B9B788F
:1049F00003F0FF024BB9314B31481A705B210122A1
:104A000001F03CFE0420FDF72DF9A378012B05D120
:104A10002A4B002204201A70FDF724F9012533687F
:104A20009D42B8DA605DFDF721FA0135F7E72548C8
:104A30002549C4E51A78062A3FF4CDAD1B78072B2B
:104A40003FF4C9AD1F482149C7E51A78052A3FF44C
:104A5000D0AD1B78072B3FF4CCAD1A481C49CAE5F2
:104A60001C4B07221A6000251A686E1C511C196025
:104A7000A25CF6B22C2A01D03546F5E7E020FDF71E
:104A8000F5F905F11100C0B2FDF7F0F99020FDF73E
:104A9000EDF90220FDF7EAF90F48104904F0B9FFDB
:104AA0000725731DAB42FFF640AF615D0A4804F075
:104AB00088FE0135F5E700BF84170020D0110020E3
:104AC000B8190020E4190020829B0108A29B01086C
:104AD000C29B0108A8110020CC190020819C01086C
:104AE00070B5184804F07CFE0028174C0BDD174DFC
:104AF00014482E68731C2B6004F01EFEC0B2A05533
:104B00002B680022E2542378E02B02D00F4B0022C6
:104B10001A6022780C4BE02A13D10C4A1168013933
:104B2000595CFF290DD111680239595CFF2908D160
:104B30001268033A9B5CFF2B03D1BDE87040FFF77E
:104B400083BB70BDE419002084170020A811002049
:104B500038B5284B1B780BB904F022F8264B1B788C
:104B6000AA2B264B04BF00221A601B68B3F57A7F7C
:104B70003FD2234CFEF7A4FBFFF76EFA23780BB16C
:104B8000FFF7AEFF23781BB11E4B1868FBF7F4FB51
:104B900023780BB1FEF7CCFE23780BB1FCF776FC43
:104BA000194B1B780BB1FDF747FC184B1B7803B36F
:104BB000012005F063F8152005F034F801280546BA
:104BC000134B14D11A6801321A601B68642B10DD74
:104BD0001320294605F03CF82846FDF743F8FCF77A
:104BE000F5FF002323702378002BFAD038BD002274
:104BF0001A6038BDD011002020000020F0110020E4
:104C000010000020EC110020CC1300206E130020B7
:104C1000F811002038B50024394D142021462C709D
:104C200005F016F81320214605F012F8122021464F
:104C300005F00EF84FF41651324804F02FFE6420B0
:104C400005F01CF82F4804F0AFFD2F492D4804F063
:104C5000E0FEFCF7FDFB4FF4FA7005F00FF8FEF7ED
:104C60005FFB2B7853B11320012104F0F1FF27499A
:104C7000244804F0CEFEFCF7EBFB03E014200121F6
:104C800004F0E6FF00244FF4FA7004F0F7FF14205C
:104C900021462C7004F0DCFF1320214604F0D8FFDD
:104CA0001220214604F0D4FF4FF4E131154804F0FE
:104CB000F5FD642004F0E2FF124804F075FD12498E
:104CC000104804F0A6FEFCF7C3FB4FF4FA7004F0A2
:104CD000D5FFFEF725FB2B783BB11320012104F013
:104CE000B7FF0B4B01221A7003E01420012104F0DE
:104CF000AFFFBDE838404FF4FA7004F0BFBF00BF0B
:104D0000C5130020E41900208C9C0108939C010825
:104D100014120020F8B59F489F4BA04C036003F588
:104D20000063302743604FF4806331252770836030
:104D300001F00CFC9A4B65701A68332622F0E06291
:104D400042F080621A60974802220121A67004F0A6
:104D5000F2FD4FF47A71934804F0CEFD01210A462A
:104D6000904804F0ECFD0E200021E57004F094FF63
:104D70000E20012104F06CFF63231620042123710F
:104D800004F08AFF1720002104F086FF0D20022185
:104D9000677104F081FF0F20022104F07DFF0020E5
:104DA000022104F079FF0120022104F075FF152093
:104DB000042104F071FF6D2708200021A77104F081
:104DC0006BFF0820002104F043FF62231020002124
:104DD000E37104F061FF1020002104F039FF14207A
:104DE0000021257204F058FF1320002104F054FF25
:104DF0001220002104F050FF6B484FF4E13167723C
:104E000004F04CFD69484FF4E131A67204F046FD10
:104E100067234FF461316648E37204F03FFD40239D
:104E2000644A23731188644B090A197012885A70F6
:104E3000624A1288110ADA70614A99701268110E7A
:104E40001971110C5971DA71110A5E4A997112685F
:104E5000110E1972110C5972110ADA72997200222C
:104E6000985C5949050900F00F004D5D0132095C5D
:104E70000C2A6573A17304F10204F1D1FCF7DEFB87
:104E8000FBF7F4FB4FF47A7004F0F8FEFEF71AFD1E
:104E9000FCF770FAFFF7BEFE4C4B1B78002BF9D0E5
:104EA0004B4A4048012104F059FD5521394801F091
:104EB000DBFB484B484E18601A680020142AC4BF18
:104EC00014221A601B68454A454DD15CFBF741FA34
:104ED00006204FF49C7103F053FE2E48562101F03A
:104EE000C3FB044658B93070FEF7ECFC3D4B20463E
:104EF0001C703D4B2C701C70FCF7B4FE12E0254872
:104F0000562101F0B1FB0128044604D1FCF7AAFEAA
:104F100034702C7006E001221E48562132702A702F
:104F200001F0ACFB57211B4801F09EFB2F4BC0B298
:104F300018705C21174801F097FB2D4B08B91870C9
:104F400001E001221A705821124801F08DFB01285E
:104F500008BF284B4FF0590108BF18700D4801F0E9
:104F600083FB012808BF244B4FF05A0108BF18707B
:104F7000084801F079FB012808BF204B4FF054018D
:104F800008BF1870034801F06FFBBDE8F840FCF75C
:104F900055BD00BFB819002000E00308151200201D
:104FA00004000140C81A0020CC190020E419002098
:104FB000FC190020E8F7FF1F6F130020EAF7FF1F1E
:104FC000ECF7FF1FF0F7FF1FA09D0108C51300209D
:104FD000193800080C110020100000200495010869
:104FE0001412002044120020F41100202900002097
:104FF000360000208E190020C313002075180020F1
:10500000B0F5006F10D34FF4800320F4FF6222F05C
:1050100007024AB1034201D15B08FBE7DA0A40F616
:1050200075414A435040F0E770470000014B53F888
:1050300020007047489F010810B530B9094840F278
:105040004941094A094B04F065FB4378047843EA77
:105050000424837843EA04246008FFF7D1FF200B7F
:1050600010BD00BFED9E0108B09E0108399F0108E8
:10507000002310B50446036043608360C36003618E
:105080004361202004F0B9FD2060202004F0B5FD2C
:1050900060604FF4B46004F0B0FD2061204610BDA4
:1050A00010B50446006808B104F0ABFD606808B1B3
:1050B00004F0A7FD206908B104F0A3FD204610BD4F
:1050C00038B52025044600212A4600680EF0FEFB74
:1050D000606800212A460EF0F9FB2368A36063682C
:1050E000E3602369636138BD2DE9F04F4369002413
:1050F0000025D0F80CB0C3E9004587B00026D0F8F1
:105100000890074604910592DA46B046354A05985C
:1051100018F80210344A414018F802200498CDE9EA
:10512000024542400A4409EB06010D8A39F806405F
:1051300002351444AD1AADB2A4B2AC4234BF002063
:105140000120002818BF2C46AAF8004039F8064074
:10515000098A0234A41A0A44A4B292B2944234BF17
:105160004FF0000C4FF0010CBCF1000F08BF2246BD
:10517000AAF80220C0B2324600218DE808100BF0D8
:1051800059FEDDF804C004460D46721C5FFA8CF02F
:1051900000210BF04FFE08F1010820432943B8F12C
:1051A000080FDDE9024506F1020644EA000445EA7B
:1051B00001050AF1040A009BA8D1E3E802453A6917
:1051C0007B619B1AB3F5B56F05DB08485C21084A83
:1051D000084B04F09FFAC7F808B0C7F80C9007B066
:1051E000BDE8F08FE5DF0108DDDF0108EDDF010834
:1051F00070E001083DE00108F8B5074614460D4689
:1052000009B100261FE015486521154A154B04F029
:1052100081FA7B69A3F108027A6153E9020132093C
:105220000BF0FCFD00F00102D30143EA56060E48E4
:10523000E30804F0070152B115F803C0EA18435C13
:105240004CEA0303137014F1FF34E2D205E0EA18CC
:10525000415CEB5C23EA0103F4E7F8BDEDDF0108F4
:105260009FDF010859E001089FE001082DE9F74F91
:10527000009321B933487621334A344B04E02AB9EC
:105280003048314A324B772104F044FA009B2BB16D
:10529000002005468046844607463EE0294878219E
:1052A000294A2C4BF0E72C4C4FEAD00A00F00709B2
:1052B00011F80AA014F8099006F0070B1AEA090F72
:1052C0000CEB070A0CBF4FF000094FF00109AA448C
:1052D0004544CA444D440AF0010315F0010F4FEA5A
:1052E000D605019302EB050A1CD0555D14F80BB0EE
:1052F00045EA0B050136019B8AF80050F50806F0D7
:10530000070A5619A3B1555D14F80A402C434546C7
:105310003470E0460130BC464F46009B4600984240
:10532000C1D10BE014F80BB0555D25EA0B05E1E7A0
:1053300014F80AA0545D24EA0A04E8E703B0BDE8C3
:10534000F08F00BFEDDF010848DF0108A9920108D6
:1053500059E0010865E001089FE0010838B5002523
:1053600004460560062004F048FC29462060062219
:105370000EF0ACFA204638BD10B50446006808B1FE
:1053800004F03FFC204610BDF0B504468BB029B9AF
:1053900031484321314A324B04F0BCF904A84E1D78
:1053A000FFF766FE04A8FFF78BFE00252D4B2E4A63
:1053B000EB580435581CD90803F00703D35C715C23
:1053C00019424FEAD00300F00700F75C135C0CBFF2
:1053D000002101211F420CBF0022012204A8FFF777
:1053E00083FEB5F5C87FE1D16946602204A8FFF7C6
:1053F00003FF6846FFF720FE07460DF10300FFF7A5
:105400001BFE06460DF10600FFF716FE05460DF1E0
:105410000900FFF711FE23683A091A702368C6F3E2
:10542000032242EA07175F7023682A099E702368E7
:105430000621DA702368C0F3032242EA05151D71C4
:10544000236858712068FAF7D3FE044604A8FFF7D2
:1054500027FE20460BB0F0BDD3E00108A7E001080D
:10546000399F01084CE101081CE101082DE9F041D8
:10547000054692B00C4629B94F486A214F4A504B15
:1054800004F048F900680621FAF77EFE2B685A7886
:105490009978160206F470660E431979DD780809CA
:1054A0004FEA012840EA0515587908F4706848EA7F
:1054B00000081878120942EA0010FFF7B7FD074606
:1054C0003046FFF7B3FD06462846FFF7AFFD054619
:1054D0004046FFF7ABFD3B0C8DF804303B0A8DF8DE
:1054E0000530330C8DF80730330A8DF808302B0C5B
:1054F0008DF80A302B0A8DF80B30030C8DF80C5008
:105500008DF80D308DF80F00030A002505A88DF8E1
:105510000E308DF806708DF809608DF81050FFF789
:10552000A7FD642305A801A90BAAFFF79FFE2B4640
:10553000244A12AE52F81300234A06EBD30103F0BB
:105540000705565D0DF1480E11F81C5C591C01F061
:1055500007070EEBD10111F81C1CD75D2E4207EA9C
:1055600001074FEAD00103F1020300F0070604EB44
:10557000010505D014F801E0915D4EEA010103E058
:10558000965D615C21EA060101302970C108651849
:1055900000F007001FB1615C125C0A4303E0105C7D
:1055A000625C22EA0002C82B2A70C1D105A8FFF76D
:1055B00077FD12B0BDE8F081D3E0010824E10108D5
:1055C000399F01084CE101081CE1010803681878C3
:1055D0008009704703681A7802F03F021A70036866
:1055E0001A7842EA811119707047036809011A7824
:1055F00022F030021A70036801F03002187802437A
:105600001A7070470368C9005A7822F038025A703D
:10561000036801F03802587802435A7070470368F3
:1056200001F007015A7822F007025A7003685A788D
:105630001143597070470368C9009A7822F0380204
:105640009A70036801F03802987802439A707047A4
:1056500003689A7811B142F0040201E022F00402DA
:105660009A707047036801F003019A7822F00302F0
:105670009A7003689A7811439970704703689A7812
:1056800011B142F0400201E022F040029A707047EE
:105690000368DA7811B162F07F0201E002F07F0264
:1056A000DA707047036801F07F01DA7822F07F0238
:1056B000DA700368DA781143D970704710B50023A7
:1056C0000446036043608360C36003614361836198
:1056D0001C30FAF757FD204610BD10B5044600688F
:1056E00008B104F08EFA606808B104F08AFAA06884
:1056F00008B104F086FAE06808B104F082FA206983
:1057000008B104F07EFA606908B104F07AFAA06981
:1057100008B104F076FA04F11C00FAF734FD2046D3
:1057200010BD0000F0B593B00D4601AC062A0CD8B0
:10573000DFE802F0040D0F1113151700C26810689E
:105740005168234603C312891A8000230BE0826844
:10575000F5E74268F3E70268F1E70269EFE74269BB
:10576000EDE78269EBE72F4A995CE25C4A40E2543C
:1057700001330A2BF7D10C212046FAF705FD00264C
:1057800005A88DF81060FFF773FC05A8FFF798FCDB
:10579000642305A821460BAAFFF768FD3346224A79
:1057A00012AE52F81300214A06EBD30103F00704AE
:1057B000165D0DF1480E11F81C4C591C01F007073D
:1057C0000EEBD10111F81C1CD75D264207EA010738
:1057D0004FEAD00103F1020300F0070605EB0104D4
:1057E00005D015F801E0915D4EEA010103E0965DF8
:1057F000695C21EA060101302170C1086C1800F0D3
:1058000007001FB1695C125C0A4303E0105C6A5C2C
:1058100022EA0002C82B2270C1D105A8FFF740FC84
:1058200013B0F0BDF0E3010884E4010814E60108B8
:105830002DE9F0430C46C168A5B080460023CA5C40
:105840000DF8032001330A2BF9D1D8F80810CA1833
:1058500012F80A2C0DF803200133142BF7D1002382
:10586000864F1DF80320D95D4A400DF8032001330F
:10587000142BF5D116216846FAF786FC002506A8F8
:105880008DF81650FFF7F4FB06A8FFF719FCB423B8
:1058900006A869460CAAFFF7E9FC2B46784A0DF1E9
:1058A000900909EBD30003F00706764D12F806E0E5
:1058B00010F8606C581C55F8131000F0070C09EB39
:1058C000D00010F8600C12F80CC01EEA060F01F0B0
:1058D000070E12F80E900CEA000C0DF1900E4FEA34
:1058E000D10086441EF830EC03F1020314BF49EAEC
:1058F0000E0E2EEA090E0DF19009484400F830EC26
:10590000481CC10800F007001646105CBCF1000FEF
:1059100005D04A460A4412F8302C024305E024AA76
:105920000A4412F8302C22EA00020DF1900E714464
:10593000B3F5B47F01F8302CB0D1002318AA1A4473
:10594000116804EB430044F8131051680933127ACC
:105950002D2B41600272F1D1D8F804100023CA5CEB
:105960000DF8032001330A2BF9D1D8F80010CA181A
:1059700012F80A2C0DF803200133142BF7D1002361
:105980001DF80320F95C4A400DF803200133142B65
:10599000F6D116216846FAF7F7FB002706A88DF81E
:1059A0001670FFF78DFBB42306A869460CAAFFF713
:1059B0005DFC3B460DF1900803F0070008EBD301B6
:1059C00016F800C011F8600C591C55F8132001F0AE
:1059D000070E08EBD10111F8601C294F16F80EE0F4
:1059E0001CEA000F02F007000EEA010E03F10203A9
:1059F0004FEAD2013F5C05D04046084410F8300C15
:105A0000384305E024A8084410F8300C20EA0700C9
:105A10000DF19009494401F8300C511CCA0801F0FD
:105A20000701705CBEF1000F05D04946114411F822
:105A3000301C014305E024A9114411F8301C21EA6F
:105A400000010DF1900E7244B3F5B47F02F8301CE2
:105A5000B0D10934002318AA1A441168093321600F
:105A60005168127A2D2B6160227204F11204F2D176
:105A700006A8FFF715FB25B0BDE8F083F0E30108A9
:105A800014E601081CE60108F0B5002385B064485F
:105A9000644D50F8230003F00707C40800F0070026
:105AA0000C5D285C04424FEAD304284602EB04064E
:105AB00005D012F804C0EC5D4CEA040403E0ED5D8F
:105AC000145D24EA05040133312B3470DFD1022147
:105AD0000023DE0803F00704045D965D5F001F44A9
